:100000000C944C060C9493060C9493060C944B079A
:100010000C9493060C9493060C9493060C949306FC
:100020000C9493060C9493060C94272D0C94FB2DA2
:100030000C94C8280C9493060C9493060C94930685
:100040000C9493060C9493060C9493060C949306CC
:100050000C9493060C9413290C9493060C94930619
:100060000C9493060C9493060C9493060C949306AC
:100070000C9493060C9493060C9493060C9493069C
:100080000C9493060C9493060C9493060C9493068C
:100090000C94A90A0C9493060C9493060C94930662
:1000A0000C9493060C9493060C94930600000000A5
:1000B00000003E5B4F5B3E003E6B4F6B3E001C3EC4
:1000C0007C3E1C00183C7E3C18001C577D571C00D1
:1000D0001C5E7F5E1C0000183C180000FFE7C3E7B1
:1000E000FF00001824180000FFE7DBE7FF0030489E
:1000F0003A060E00262979292600407F05050700CB
:10010000407F05253F005A3CE73C5A007F3E1C1CBF
:100110000800081C1C3E7F0014227F2214005F5F31
:10012000005F5F0006097F017F00006689956A0015
:1001300060606060600094A2FFA2940008047E04E6
:10014000080010207E20100008082A1C0800081C47
:100150002A0808001E10101010000C1E0C1E0C00A7
:1001600030383E383000060E3E0E0600000000001B
:10017000000000005F000000000700070000147F7F
:10018000147F1400242A7F2A1200231308646200BB
:10019000364956205000000807030000001C224189
:1001A00000000041221C00002A1C7F1C2A000808B5
:1001B0003E080800008070300000080808080800A9
:1001C0000000606000002010080402003E51494514
:1001D0003E0000427F4000007249494946002141EB
:1001E000494D33001814127F10002745454539004A
:1001F0003C4A494931004121110907003649494922
:100200003600464949291E00000014000000004045
:1002100034000000000814224100141414141400C7
:100220000041221408000201590906003E415D59AF
:100230004E007C1211127C007F49494936003E4134
:10024000414122007F4141413E007F4949494100EF
:100250007F09090901003E41415173007F080808E8
:100260007F0000417F4100002040413F01007F08A6
:10027000142241007F40404040007F021C027F006A
:100280007F0408107F003E4141413E007F0909097B
:1002900006003E4151215E007F091929460026498A
:1002A0004949320003017F0103003F4040403F00C5
:1002B0001F2040201F003F4038403F0063140814B7
:1002C00063000304780403006159494D4300007F33
:1002D00041414100020408102000004141417F00DB
:1002E000040201020400404040404000FCFE028243
:1002F0008282828282C2820202FE0000FEFE0262CE
:10030000626262E26262E20202FC0000000000F04F
:10031000304000000000000000000000000000006D
:1003200000000000000000000000000000000000CD
:10033000000080000000000000000040000024A435
:10034000A4BCA4242400000024A424243C0404000D
:100350000000B8A4A4A4BC00000000FC00FC004401
:100360004444DC44043C00000000FCFEFE7E7E7E33
:100370007E7E7E3E7EFEFEFE0000FEFEFE9E9E9E79
:100380009E1E9E9E1EFEFEFC000000000000000857
:1003900036410000000077000000004136080000F0
:1003A0000201020402003C2623263C007F7F4041DC
:1003B0004141414141414140407F00007F7F4040F9
:1003C0004040404140404340407F000000F0FBFB84
:1003D000005060FFFC3C1E0E0CFCF8E8E8E8300022
:1003E000000000000200000000000000000000000B
:1003F00002020D0202000000000000000000575041
:10040000575457105000000097949794F70000003D
:100410000000E414F494F700000000FF00FF00382F
:10042000A4A4A53C0000000000007F7F7F7E7E7EAC
:100430007E7E7E7E7E7F7F7F00007F7F7F7F7F7FCF
:100440007F7E7F7F7C7F7F7F0000000000000000B8
:10045000000000000000000000000000000000009C
:10046000000000000000000000000000FEFE02622C
:100470006262E2626262C20202FE0000FEFE02826C
:10048000C2E2F2828282820202FE000000077FDF67
:100490000005037F1F1E3C38181F0F0D0D0D0600B1
:1004A00000000000002020508C50202000000000A0
:1004B000000000000000000080804030408089097A
:1004C00006090900000000001C1212121E10100084
:1004D0000000000000000000000000FF007384E73F
:1004E00094949467000000000000FEFEFE9E9E9E15
:1004F0001E9E9E9E3EFEFEFE0000FEFEFE7E3E1EF8
:100500000E7E7E7E7EFEFEFE0000000000000000EB
:1005100000000000000000000000000000000000DB
:100520000000000000000000000000003F7F404687
:100530004646474646464340407F00007F7F404155
:1005400043474F4141414140403F00000000000708
:100550000601000000000000000000000000000094
:10056000000000000000000001000000000000008A
:10057000040000000000000000000106010000006F
:10058000000000000000000000000000000000006B
:1005900008083608080000000000001F000E101CAC
:1005A000121212120000000000003F7F7F7979795B
:1005B000787979797C7F7F7F00007F7F7F7E7C7870
:1005C000707E7E7E7E7F7F3F000000000000000086
:1005D000000000000000000000000000000000001B
:1005E00000000000000000000000000020002900C2
:1005F000330026022F0036022F0200002C011300C8
:100600000E0015000400090000002A000700170072
:100610000B0008001200000002551C00160011001B
:100620000C00180005530155045508550351045199
:100630000E5D280001000100010001000100010021
:1006400000000100010001000100010001000000A4
:100650000100010001000100010001000000010093
:100660000100010001000100010001000100010082
:100670000100010001000100010001003302270216
:1006800030003702300200002B000D001000050082
:1006900034002B0000003700190006000F001D0079
:1006A0001400000001001B000A001A002D004C007D
:1006B000010001000100010036002C0001000100D2
:1006C0000100010001000100010001000000010023
:1006D0000100010001000100010000000100010013
:1006E0000100010001000100000001000100010003
:1006F00001000100010001000100010001000100F2
:10070000010001000100095DC55C0100005C010001
:10071000010000000B5DC95C400041004200010087
:1007200000000C5DCA5C3D003E003F00450000003B
:100730000D5D43003A003B003C00440001000A5DAF
:1007400001000100010001000100010001000100A1
:100750000100010001000100000001000100010092
:100760000100010001000000010001000100010082
:100770000100010000000100010001000100010072
:100780000100010001000100010001000100010061
:1007900001000100350035020100010023020000C4
:1007A0004600310020022E00380222020000010023
:1007B000210252001F021E023102000039005000C7
:1007C00051004F002D022402010001000100010030
:1007D0000100010001000100010001000100010011
:1007E0000100010000000100010001000100010002
:1007F00001000000010001000100010001000100F2
:1008000000000100010001000100010001000100E1
:1008100001000100010001000100010001000100D0
:100820000100025401000100010000000100250246
:100830002400250026002D0000003700380021008C
:10084000220023002E020000530027001E001F007C
:1008500020003A0301000100010001000100010035
:100860000100010001000100010001000100010080
:100870000000010001000100010001000100000072
:100880000100010001000100010001000000010061
:100890000100010001000100010001000100010050
:1008A0000100010001000100010029001E001F00DD
:1008B00020002100220000002B0014001A00080074
:1008C00015001700000001000400160007000900D1
:1008D0000A000000E1001D001B00060019000500D1
:1008E0000100E0002800E200E2002C002C001000D3
:1008F00001000100010001000100010000000100F1
:1009000001000100010001000100000001000100E0
:1009100001000100010001000000010001000100D0
:1009200001000100010001000100010001000100BF
:1009300001000100010000000000000000002A2B5F
:10094000280000000000000000000000000000007F
:100950000029000000002C1E3420212224342627E8
:10096000252E362D3738271E1F2021222324252609
:100970003333362E37381F0405060708090A0B0CD7
:100980000D0E0F101112131415161718191A1B1C1F
:100990001D2F3130232D350405060708090A0B0CDD
:1009A0000D0E0F101112131415161718191A1B1CFF
:1009B0001D2F3130354C0000000000000000000009
:1009C000000000000000000000007E0F00D4FFFFC8
:1009D000FFC7000000787F3F1F6432146432147830
:1009E0003C1E1E140A052223252628292A2C2D2FD9
:1009F0003032333536383A3B3D3E40424345474935
:100A00004A4C4E5051535557595A5C5E6062646669
:100A100068696B6D6F71737577797B7D7F81838575
:100A200087898A8C8E90929496989A9C9E9FA1A377
:100A3000A5A7A8AAACAEAFB1B3B4B6B8B9BBBCBE9B
:100A4000BFC1C2C3C5C6C7C9CACBCCCDCED0D1D217
:100A5000D2D3D4D5D6D7D7D8D9D9DADADBDBDBDC19
:100A6000DCDCDCDCDDDDDDDDDCDCDCDCDCDBDBDBC5
:100A7000DADAD9D9D8D7D7D6D5D4D3D2D2D1D0CE25
:100A8000CDCCCBCAC9C7C6C5C3C2C1BFBEBCBBB92A
:100A9000B8B6B4B3B1AFAEACAAA8A7A5A3A19F9EA8
:100AA0009C9A98969492908E8C8A89878583817F70
:100AB0007D7B79777573716F6D6B69686664626051
:100AC0005E5C5A5957555351504E4C4A494745431D
:100AD00042403E3D3B3A3836353332302F2D2C2ABA
:100AE000292826252322FFAA7F5540000101010164
:100AF00001010101010202020202020202020303D9
:100B000003030303030304040404040404050505A8
:100B1000050506060606060707070707080808086A
:100B2000090909090A0A0A0B0B0B0C0C0C0D0D0D17
:100B30000E0E0E0F0F0F10101111111212131314AD
:100B400014151516161717181819191A1A1B1B1C25
:100B50001D1D1E1E1F20202122222324242526267F
:100B6000272829292A2B2C2D2D2E2F3031323233B4
:100B70003435363738393A3B3C3D3E3F40414243BD
:100B80004445464748494A4C4D4E4F5051535455A1
:100B90005658595A5B5D5E5F616264656668696B51
:100BA0006C6D6F7072737577787A7B7D7E808283CF
:100BB0008587888A8C8E8F91939596989A9C9EA013
:100BC000A2A3A5A7A9ABADAFB1B3B5B7BABCBEC020
:100BD000C2C4C6C9CBCDCFD1D4D6D8DBDDDFE2E4E9
:100BE000E7E9EBEEF0F3F5F8FAFDFF04033000005F
:100BF000001603480065006C006900780020004280
:100C00000065007400610000001403590075007352
:100C100000680061006B006F0062006F000000045C
:100C200003090409022200010100A03209040000A6
:100C30000103010100092111010001224000070503
:100C4000810308000A12011001000000086532004B
:100C50000001000102030105010906A101050719B0
:100C6000E029E715002501950875018102950175B8
:100C70000881010507190029FF150026FF009506C8
:100C8000750881000508190129059505750191026E
:100C9000950175039101C00011241FBECFEFDAE06A
:100CA000DEBFCDBF04B603FE27C0809141079091FF
:100CB0004207A0914307B09144078730904BA7406B
:100CC000B04BD1F4109241071092420710924307A3
:100CD0001092440714BE84B7877F84BF0FB6F89480
:100CE000A8958091600088618093600010926000F8
:100CF0000FBEE0E0F8E3099512E0A0E0B1E0EAE31E
:100D0000F1E602C005900D92AA30B107D9F727E0AD
:100D1000AAE0B2E001C01D92A134B207E1F70E943F
:100D20006A2A0C945F300C9400008EE14A9B02C04A
:100D30008150E1F74A9BFECF08955A9880E28A9548
:100D4000F1F75A9A0895FC013BE03A95F1F720E05B
:100D500090E080E031E040E14A95F1F7880F4A9B4E
:100D600002C08160232742E04A95F1F7000040E18C
:100D70004A95F1F79F5F6913EECF90E19A95F1F7ED
:100D800099B132E03A95F1F7000040E14A95F1F768
:100D900092FB992790F992272081920F90830895D2
:100DA000EF92FF920F931F93CF93DF930F92CDB7E4
:100DB000DEB719828C017C01E60EF11C0E151F05B1
:100DC00061F481E09981911180E00F90DF91CF91E2
:100DD0001F910F91FF90EF9008950E94950668E093
:100DE000CE0101960E94A306F80181938F01E6CF00
:100DF00090930C0280930B0260930A02529A5A9AC3
:100E0000089590930C0280930B0260930A0252980B
:100E10005A9AEA9AE9E6F0E080818F7C808308950F
:100E20006150770B91E001C0990F6A95EAF720E0D5
:100E300031E0911108C0222391F05A9A80E28A95FC
:100E4000F1F75A980895492F482339F05A9A2327E1
:100E500040E24A95F1F79695ECCF5A98F9CF5A9817
:100E6000EDCFFF920F931F93CF93DF93EC018C0193
:100E7000060F111DC017D10731F4DF91CF911F91DB
:100E80000F91FF900895F9900E949D0668E08F2DC4
:100E90000E941007EFCF1F920F920FB60F921124EE
:100EA0000F931F932F933F934F935F936F937F9372
:100EB0008F939F93AF93BF93EF93FF93CF93DF9362
:100EC0000F92CDB7DEB719820E94950667E0CE017A
:100ED00001960E94A306082F069506950695982F61
:100EE00092959570202F2570920F292F237096953B
:100EF00096958770920F891344C08981811141C0F2
:100F000080910A028017E8F120E12A95F1F75A9AB8
:100F1000529A82E08A95F1F700C0A8E00A9FC001CA
:100F2000112400910B0210910C02080F191F5A98FE
:100F3000F8016581662321F0868197810E9431073F
:100F40000E949D06F0E1FA95F1F75A9852985A9A44
:100F500020E12A95F1F7D80112966C911297662339
:100F600031F113968D919C910E94D006D801ED919C
:100F7000FC91882311F088E001C082E080830E9408
:100F800095060F90DF91CF91FF91EF91BF91AF91B7
:100F90009F918F917F916F915F914F913F912F9191
:100FA0001F910F910F900FBE0F901F901895ED910C
:100FB000FC91E1CF0F931F93CF93DF9320910A020F
:100FC000281719060CF471C08C0193E0000F111F53
:100FD0009A95E1F7C0910B02D0910C02C00FD11F7E
:100FE000F894529A5A9825E02A95F1F70000982F24
:100FF000969595708570980F892F83709695969524
:10100000980F092B0E949D0600C067E0802F0E9468
:10101000100780E18A95F1F752985A9A4A9B17C0B7
:1010200087E090E04A9915C06D81662321F18E8199
:101030009F810E94D00681111EC0529A5A9AE8815F
:10104000F98182E08083789482E090E00DC000C056
:10105000E5CF019771F4529A5A9AE881F98181E0BB
:101060008083789481E090E0DF91CF911F910F9180
:10107000089500C0D7CF0E94950620E22A95F1F787
:101080005A98529A80E18A95F1F76A81662321F095
:101090008B819C810E9431070E949D06E881F98125
:1010A0001082789490E080E0DFCF84E090E0DCCFA5
:1010B000CF93DF93A9ECB1E04EEC51E0C1E0D0E07A
:1010C0008D91E82FE295EF70F0E061A18F709E01A5
:1010D00001C0220F8A95EAF7922F9095962391A34B
:1010E00082A1822B82A34A175B0751F7DF91CF9130
:1010F00008950C9456100E94000A0E945808A2EC11
:10110000B1E061E070E08D91E82FE295EF70F0E0E2
:1011100041A18F709B0101C0220F8A95EAF7922F9F
:101120009095942391A382A1822B82A381E0A93C74
:10113000B80749F7209A559A289A5D9AE7E1F2E0B4
:10114000ADE0B2E011921D9282E0E132F807D1F7F2
:101150000C94BB129F92AF92BF92CF92DF92EF920C
:10116000FF920F931F93CF93DF9380910101C5E00E
:10117000D0E0882311F0D0E0C0E089ECC82E81E0F7
:10118000D82EAE01435F5D4F7A018A01AA24A39451
:10119000B12C25E0922EF60181916F01E82FE295A6
:1011A000EF70F0E021A18F70A50102C0440F551F20
:1011B0008A95E2F7CA01922F982B91A392A180956C
:1011C000892382A350EA5A95F1F7E2ECF1E020E09E
:1011D00050E040E03191A32FA295AF70B0E090961F
:1011E0008C9190E03F7002C0959587953A95E2F713
:1011F00080FD39C0C501042E01C0880F0A94EAF7AA
:10120000282B4F5F5F4F4730510521F7F801808150
:10121000821719F02083909200010E9458080F5FF6
:101220001F4FFEECCF16F1E0DF0609F0B4CF80913E
:101230000001882359F08150809300018823A9F090
:101240008FE99FE00197F1F700C0000081E0DF9196
:10125000CF911F910F91FF90EF90DF90CF90BF90B3
:10126000AF909F90089580E0CBCFC95EDD4FF7012E
:1012700091917F0199938F5F8530C9F7E7CFCF9325
:10128000DF9320910101D0E0C0E0222311F0C5E0FE
:10129000D0E00E941B0A009731F0029709F42898C9
:1012A00081E090E00BC0289ADE01A95EBD4F25E0E9
:1012B000EDE2F2E001900D922A95E1F7DF91CF91F6
:1012C00008950E94AA0880910101E5E0F0E08823DA
:1012D00011F0F0E0E0E0E95EFD4F90E080E020E01A
:1012E000DC01A35DBD4F4C913191431321E03C9350
:1012F000019685309105A1F780912502820F809398
:1013000025020895CF93DF930E94E409882309F40E
:1013100040C00E94AA0880910101C5E0D0E0882366
:1013200011F0D0E0C0E0C95EDD4F45E050E0BE0105
:1013300088E292E00E94E82F25E0FE01A8E2B2E0F8
:1013400001900D922A95E1F70E943F09892BE9F05F
:101350005D98809121028F5F80932102863078F022
:1013600080910101F0E0E0E0882311F0E5E0F0E099
:10137000E95EFD4F108211821282138214820E9454
:10138000C31281E0DF91CF9108955D9A10922102FE
:10139000F6CF0E94610980910101B0E0A0E08823AE
:1013A00011F0A5E0B0E0A95EBD4F85E0E8E2F2E013
:1013B00001900D928A95E1F7E2CFE82FF0E0E95E27
:1013C000FD4F80810895089580912202811111C0FE
:1013D0008091D80080618093D8008AE18A95F1F7E6
:1013E00000C09091D900892F817090FF82E0809396
:1013F000220281E090912202913009F080E008956C
:101400000E94E409809301010E94E409882321F0ED
:101410000E940F0A789408950E94150AFBCF63E09A
:1014200070E082E091E00C94F80663E070E082E006
:1014300091E00C9401070F931F93CF93DF938C01DE
:1014400090911B0180911A01D0E0C0E0981759F0EB
:1014500082E090E00E94DA07EC01892B21F4809170
:101460001A0180931B018091230290912402082B82
:10147000192B90E080E0012B11F081E090E00E94B8
:10148000DA07892B71F48091250280931A0110925A
:10149000240210922302CE01DF91CF911F910F9170
:1014A000089581E090E09093240280932302F3CF8B
:1014B00083E390E02091BC0027FD02C00197D1F7A3
:1014C00008951092B9008CE08093B8000895CF93EE
:1014D000C82F84EA8093BC000E94580A8091B9000A
:1014E000887F883041F08091B900887F803119F081
:1014F00081E0CF910895C093BB0084E88093BC0045
:101500000E94580A8091B900887F883129F0809123
:10151000B900887F803461F780E0EBCF84E9809365
:10152000BC0083E390E02091BC0024FD02C0019741
:10153000D1F708958093BB0084E88093BC000E949B
:10154000580A9091B900987F81E0983209F480E0C0
:1015500008951F921FB61F9211248F939F93EF93AC
:10156000FF938091B900887F8038C1F038F48823D8
:1015700009F44BC0803679F081E022C0883A11F03E
:10158000883BD1F7E0913302F0E0E051FD4F8081DC
:101590008093BB0031C010923202EECF80913202B4
:1015A000811122C08091BB0080933302809133026D
:1015B0008031C0F01092330280E091E090933202CB
:1015C0009091BC008295880F880F807C892B85685C
:1015D0008093BC00FF91EF919F918F911F901FBE50
:1015E0001F90189581E0E9CFE0913302F0E08091FF
:1015F000BB00E051FD4F80838091330290E0019663
:101600008F70992780933302B7CF1092BC00B4CF6C
:10161000CF93C82F88E70E94670A882311F0C0E0A3
:101620000BC080E00E949A0A8111F9CF8C2F0E9492
:101630009A0AC1E08111F3CF0E948E0A8C2FCF91BC
:101640000895CF93C62F0E94080B882321F08C2F7A
:10165000CF910C94080B80E0CF910895CF93C62FC3
:101660000E94080B882349F080E00E94080B882321
:1016700021F08C2FCF910C94080B80E0CF9108952E
:101680008EEA0C94080B8FEA0C94080B0F931F93AF
:10169000CF93DF93EC018C010C5A1F4FD801ED91D1
:1016A000FC91119760838D919C91119701968D9378
:1016B0009C938C1B9D0B84359105B9F4BE016B5E28
:1016C0007F4F4FE350E0CE010E94F52FCE01CF9621
:1016D000F8019183808345E150E060E270E0DF91A2
:1016E000CF911F910F910C940730DF91CF911F91F3
:1016F0000F9108951F93CF93DF93EC01FC01EA5AF9
:10170000FF4F81E080836A30B1F43297808191810C
:101710008C1B9D0B65E170E00E94C12F182F1531C5
:1017200020F0DF91CF911F91089560E2CE010E94D9
:10173000460B1F5FF4CFCE01DF91CF911F910C9428
:10174000460BEF92FF920F931F93CF93DF937C0191
:10175000EB01FB0101900020E9F78F010150110915
:10176000C017D10738F0DF91CF911F910F91FF90F3
:10177000EF9008956991C7010E947A0BF1CFCF9342
:10178000DF93EC0144E550E060E270E00E94073036
:10179000FE01EC5AFF4FD183C083CA5ADF4F81E06C
:1017A0008883DF91CF9108957F928F929F92AF921D
:1017B000BF92CF92DF92EF92FF920F931F93CF933E
:1017C000DF938C010E94F8289093350280933402B5
:1017D0000E94430B63E082E20E942E0B8823C9F132
:1017E0006DE781E20E942E0B882399F188E70E9421
:1017F000670A81112EC080E40E949A0A811129C0D3
:101800007801480184E5880E911C96E0792E5701F5
:10181000D12CF501C1915F01C79DE0011124C45590
:10182000DF4F86E0C82EFE0184910E949A0ACA9476
:101830002196C110F8CFD394F5E1DF12EACF85E10C
:10184000E80EF11C8E149F0411F7F801EA5AFF4FBD
:101850001082DF91CF911F910F91FF90EF90DF9059
:10186000CF90BF90AF909F908F907F900C948E0AF6
:1018700080E093E00C94D40B1F93CF93DF93C82F99
:101880000E94610A8EEA0E94080B811106C0C0E026
:101890008C2FDF91CF911F91089560E885ED0E9414
:1018A000210B8823A1F36FE188EA0E94210B882392
:1018B00071F360E083ED0E94210B882341F380E403
:1018C0000E94080B882319F364E18DE80E94210B24
:1018D0008823E9F260E080E20E94210B8823B9F2BC
:1018E000CC2309F465C080EA0E94080B882379F2B2
:1018F00080EC0E94080B882351F262E08AED0E947E
:10190000210B882321F26FE881E80E94210B8823B4
:1019100009F4BDCF61EF89ED0E94210B882309F402
:10192000B6CF60E48BED0E94210B882309F4AFCF82
:1019300084EA0E94080B882309F4A9CF86EA0E9452
:10194000080B882309F4A3CF8EE20E94080B88239A
:1019500009F49DCF8FEA0E94080B882309F497CFE2
:1019600060E081E80E94210BC82F882309F48FCF03
:1019700080E093E00E94BF0B63E082E20E942E0BA6
:10198000882389F06FE781E20E942E0B882359F0AB
:1019900088E70E94670A811106C080E40E949A0AC3
:1019A00014E08823A9F00E948E0A0E94380C70CFA0
:1019B00081EA0E94080B882309F469CF88EC99CF4B
:1019C00080E00E949A0ADF5FD038D1F7115011F001
:1019D000D0E0F6CF10925603E6CF0E948E11809190
:1019E0005603811104C080911C01882321F00E94BC
:1019F000380C10921C0180913402909135020E94A3
:101A0000042981369A4E10F00C94400B089581E021
:101A100080931C0108950F931F93CF93DF93EC01E4
:101A20008B010E94070D882351F0B801CE010E945E
:101A3000C40D8170DF91CF911F910F91089580E0C7
:101A4000F8CF08950E94E409809336020C94060FA3
:101A50000C94411DEF92FF920F931F93CF93DF934E
:101A60008C01CEEED5E020E0DE0190E0FD01E590B6
:101A7000F490E016F10661F4FB012083FA019083F3
:101A800081E0DF91CF911F910F91FF90EF9008952A
:101A90009F5F1296973051F72F5F2E962A3021F7CD
:101AA00080E0EFCF80913D0290913E02009751F18E
:101AB0000E94531E80913D0290913E0291FF03C00F
:101AC00081EE0E94531E80913D0290913E0290FF54
:101AD00003C080EE0E94531E80913D0290913E0211
:101AE00092FF03C082EE0E94531E80913D029091AE
:101AF0003E0293FF03C083EE0E94531E10923E02EB
:101B000010923D020895CF93DF93C82F80913A023F
:101B10008823B9F10E94520D80913C02E0913B0272
:101B2000F0E097E0899FE00DF11D112486E4C89F45
:101B3000E00DF11D1124EE0FFF1FE251FA4FC59188
:101B4000D491D1FF03C081EE0E94281ED0FF03C0B4
:101B500080EE0E94281ED2FF03C082EE0E94281E43
:101B6000D3FF03C083EE0E94281E8C2F0E94281EE4
:101B7000D0933E02C0933D0210923A0281E08093DE
:101B80003802DF91CF9108950F931F93CF93DF9386
:101B90008C01EB013881832F90E09093C4068093F1
:101BA000C306898190E09093C8068093C7062A8176
:101BB000222339F0209136028530910594F52111C8
:101BC00032C080913F0290914002892B39F00E3053
:101BD0008DE5180719F081E08093380280913D026D
:101BE00090913E028017910729F48A81811102C0E9
:101BF0000E94520D0B32110508F05FC00932110529
:101C000060F50E30110549F108F046C00A301105A3
:101C100000F50730110508F504301105F1F0C1E0B9
:101C20009EC02111CECF2091C606422F50E0FA016E
:101C3000EE0FFF1FE40FF51FE75AFC4F308365E0FE
:101C400070E00E94C12F818312822F5F2093C6060D
:101C5000B8CFC8010B97029710F7CA81CC2309F4BB
:101C60007CC080E00E94830D4BE352E06CE372E0A5
:101C7000C8010E942A0DC82F882309F470C00E9451
:101C8000F828909342028093410281E080933A02C7
:101C900080933902C0E063C00931110548F4053171
:101CA0001105D8F6C8014197039708F0B8CFD5CFF2
:101CB0000C31110509F0B3CFD0CF063382E01807FD
:101CC00061F2C0F40C3281E0180739F240F40F32AF
:101CD000110519F20333110509F0A1CFBECF063269
:101CE00082E0180709F4B9CF0F3282E0180709F033
:101CF00096CFB3CF0B308DE5180709F462C080F49E
:101D000009308DE5180709F449C00A301D4509F06E
:101D100086CFCA81CC2309F482CF0E94E1181FC06C
:101D20000D308DE5180709F468C008F45DC00E3069
:101D30001D4509F074CFCA81CC23B9F01092380246
:101D400081E00E94830D81E00E94EB240E94F8282C
:101D50009093400280933F029DCF109239028C2FC6
:101D6000DF91CF911F910F91089581E00E940C2582
:101D70008091380281110DC080913F029091400204
:101D80000E940429883C910520F48CEE95E00E9485
:101D9000B8121092400210923F02E1CFCA81CC23C8
:101DA00009F43DCF0E94E2150E9467198091C9068F
:101DB000869590E0909358038093570310923702D2
:101DC000CECFCA81CC2309F42ACF81E08093370299
:101DD00086E00E9464198091C906869590E09093F0
:101DE000580380935703BBCFCA81CC2309F417CF84
:101DF00081E0809337028AE0ECCFCA81CC2309F4DA
:101E00000ECF81E08093370285E1E3CF8091C90650
:101E1000869590E090935803809357030E94E409BD
:101E200091E089270C943C0C2F923F925F926F9225
:101E30007F928F929F92AF92BF92CF92DF92EF925A
:101E4000FF920F931F93CF93DF93882E962E2091AE
:101E5000A1013091A2012F3F320721F50E94AC1958
:101E600081E00E9464198091A1019091A2010196E4
:101E70008C3091050CF015C19093A2018093A101C3
:101E8000DF91CF911F910F91FF90EF90DF90CF9056
:101E9000BF90AF909F908F907F906F905F903F909A
:101EA0002F9008952530310508F091C05091C20659
:101EB0005090C606E901CC0FDD1FCE01820F931FA3
:101EC000DC01A75AB94F3D01FE01E352FE4F1F014D
:101ED000551649F2852F90E0DC01AA0FBB1FFD01CA
:101EE000E80FF91FE75AFC4F61818901061B1109B0
:101EF00017FF03C0119501951109E101E880F980F0
:101F0000F30170E060E0A80FB91FA75ABC4F6D0144
:101F1000D2E0CD0ED11C6E157F0514F05F5FD8CFD7
:101F20008C915B01A81AB108C501B7FE03C0919559
:101F300081959109800F911FE601A880B12CA81608
:101F4000B9060CF440C008968A199B0997FF02C095
:101F500090E080E0880F991F880F991F009799F1F2
:101F6000A080DFEFAD1671F0882061F0A80EB92EC9
:101F7000B11CCFEFAC16B10421F01CF0AA24AA9436
:101F8000B12CA082A180DFEFAD1671F0992061F035
:101F9000A80EB92EB11CCFEFAC16B10421F01CF085
:101FA000AA24AA94B12CA182B280DFEFBD1659F009
:101FB000442349F08B0D911D8F3F910519F014F0CA
:101FC0008FEF90E082836F5F7F4F3F96A4CF809129
:101FD000C2064091C606982F2530310589F1C90106
:101FE00006978530910508F050C0EC01CC0FDD1F3D
:101FF000FE01E352FE4F60817181FE01E80FF91F7F
:10200000E75AF94F30E020E0CD52DE4F817099273A
:102010008B010150110926173707CCF00E941F16BB
:1020200022CF292F30E0F901EE0FFF1FE20FF31F3F
:10203000E75AFC4F2281223140F42F5F22839F5FB9
:102040004913EFCF8093C2060ECF8F5FF8CFA881E0
:10205000B981A801421B530B009709F0A9014A0F4F
:102060005B1FDA01AA0FBB1FA40FB51FA253B94F04
:10207000408111964C93119741814C934281129665
:102080004C932F5F3F4F3F96C6CF2B30310509F061
:10209000EACEE9E5F6E089E6DF011D928A95E9F7E7
:1020A000E2CE1092A2011092A101EACE0E94ED0CA4
:1020B00080913A02882389F08091410290914202F6
:1020C0000E9404294F9748F080E00E94830D809180
:1020D0003902811102C00E94520D8091C902909173
:1020E000CA02A091CB02B091CC024091C50650E04B
:1020F00070E060E0481759076A077B0771F0843089
:102100009105A105B105B1F120F50297A105B10531
:1021100059F18091C9028093C506809137028111DF
:1021200043C08091C9029091CA02A091CB02B091A4
:10213000CC0284309105A105B10591F1E8F4009736
:10214000A105B10529F144E60297A105B10549F1C0
:10215000089588309105A105B10551F04097A1057A
:10216000B105B9F684E001C081E00E94830DD1CFB2
:1021700083E0FBCF82E0F9CF88309105A105B1055E
:1021800061F040E067E14097A105B10559F008957D
:102190004FE760E780E00C94140F40E06FE7FACF60
:1021A0004DE360E08FE7F7CF08950F931F93CF9330
:1021B000DF93EC018B0144E550E00E94E82F892B6E
:1021C00059F084E5F801DE0101900D928A95E1F75E
:1021D000CA5ADF4F81E08883DF91CF911F910F9121
:1021E0000895AF92BF92CF92DF92EF92FF920F933A
:1021F0001F93CF93DF93EC010E94F31CB12CA12C11
:1022000080FF03C064E0A62EB12C0E94F31CF12CC9
:10221000E12C81FF03C054E0E52EF12C0E94F31C59
:1022200010E000E082FF02C004E010E08091C902EB
:102230009091CA02A091CB02B091CC0244E0C42E8E
:10224000D12C0497A105B10511F0D12CC12C83E04C
:10225000AA0CBB1C8A95E1F7B5016F597E4FCE01E0
:102260000E94A10B93E0CC0CDD1C9A95E1F7B6011E
:102270006B597E4FCE010E94A10B6DE171E0CE0142
:102280000E94A10BB50167597E4FCE010E94A10BA0
:10229000B60163597E4FCE010E94A10B6EE271E040
:1022A000CE010E94A10B82E0E80EF11C23E0EE0CAF
:1022B000FF1C2A95E1F7B7016F597E4FCE010E94AE
:1022C000A10B0E5F1F4F33E0000F111F3A95E1F78E
:1022D000B8016B597E4FCE010E94A10B6FE371E0F4
:1022E000CE010E94A10BB70167597E4FCE010E941B
:1022F000A10BB80163597E4FCE010E94A10B60E58E
:1023000071E0CE01DF91CF911F910F91FF90EF907F
:10231000DF90CF90BF90AF900C94A10BCF93DF9341
:10232000CDB7DEB7C755D1090FB6F894DEBF0FBEE3
:10233000CDBFCE0101960E94BF0B8091360288234B
:1023400021F0CE0101960E94F110BE016F5F7F4F18
:1023500080E093E00E94D510C95ADF4F0FB6F89481
:10236000DEBF0FBECDBFDF91CF91089581E008950C
:1023700008950C94B8111F93CF93DF9300D000D031
:102380000F92CDB7DEB749835A836B8330916302D6
:1023900089819A8131111DC06623B9F02223A9F0E9
:1023A0000E94DB25182F682F89819A810E9487253A
:1023B00069817A81812F0F900F900F900F900F906D
:1023C000DF91CF911F910C9427130E94B325182FF2
:1023D000EFCF0E94DB2569817A81EDCFFC01262FAA
:1023E000408151816281738184810C94BB11CF93B0
:1023F000DF93EC0160E00E94EE11BE01DF91CF910E
:102400000C94B911FF920F931F93CF93DF93E82F92
:10241000F0E0EA5CF64FF490C82FC695C695C695D5
:10242000D0E0FE01EA53F64F0491877010E0082EC9
:1024300002C0159507950A94E2F701701127CA5456
:10244000D64FFE01C491D0E002C0D595C7958A95BC
:10245000E2F7C170DD270115110519F081EE0E9428
:10246000281E209719F086EE0E94281E8F2D0E94AC
:102470007B1ECD2B19F086EE0E94531E012B41F0DE
:1024800081EEDF91CF911F910F91FF900C94531E1D
:10249000DF91CF911F910F91FF900895EF92FF92DE
:1024A0000F931F93CF93DF938C01F62E8AE0E82ED3
:1024B000F8018491882309F454C0813009F04DC09B
:1024C000E8012196FE018491813091F42196FE016C
:1024D00084910E947B1E8E010F5F1F4F8F2D8150B4
:1024E00038F3EFE9FFE03197F1F700C00000F7CFD4
:1024F000823039F4E8012296FE0184910E94281E60
:10250000EACF833039F4E8012296FE0184910E94DB
:10251000531EE1CF8430F9F6E8012296FE012491A2
:1025200090E080E0FE0131962053330B2A303105D4
:1025300048F0019780F2EFE9FFE03197F1F700C032
:102540000000F7CFE89EA001E99E500D1124C901BB
:10255000840F951F2491EF01E5CF0E940212E8013C
:10256000BACFDF91CF911F910F91FF90EF90089517
:1025700060E00C944E120E947D27811102C00E94DF
:102580001A280C94220D0C94790881E008950C947B
:10259000C512CF93C82F0E94210D8C2FCF910C9480
:1025A000C71208950E9403210E94D1122FEF84E3E5
:1025B0009CE0215080409040E1F700C000000C9466
:1025C00037290F931F93CF93DF93EC0161E00E94B3
:1025D000EE118C01BE010E940B0D882359F1BE0142
:1025E000C8010E94601B882329F1BE01C8010E9416
:1025F000A11B8823F9F0BE01C8010E94C41C8823D6
:10260000C9F0BE01C8010E94591A882399F08A8135
:10261000882339F001158CE5180751F00E3D1C4553
:1026200079F0CE01DF91CF911F910F910C94B611EB
:102630000E94D21280E0DF91CF911F910F910895F7
:102640000E941A28F7CF90E080E008950895972F10
:1026500070E027E0929F600D711D1124FB0196E44C
:10266000899FE00DF11D1124EE0FFF1FE251FA4F7B
:10267000859194910895FC01EE0FFF1FEA52F64FE9
:10268000859194910895CF93DF930E9427130E9420
:102690003614EC01811521E59207D0F5811530E55E
:1026A000930708F096C081159042F8F4C11581E0B7
:1026B000D807B8F4C03ED10588F4C03CD10508F075
:1026C0007BC0C130D10569F0209759F0CE01049745
:1026D000813A910530F0D0E0C0E003C0C83ED1059A
:1026E000D0F7CE01DF91CF910895C11590E4D907BD
:1026F00008F06CC0CE019F70C11520E3D20708F42A
:102700005EC0CE019927D3FF5EC0EC01D86CE9CF43
:10271000811535E5930700F5811544E5940708F028
:102720008DC0C11583E5D80708F074C0C11592E5C6
:10273000D90708F46AC0CE018370992721E030E000
:1027400002C0220F331F8A95E2F7C695C69580E234
:10275000C89FE001112455C0811529E59207A0F416
:10276000811538E5930708F06EC0811546E594079A
:1027700008F0B1CF0E94CD14C82FD0E0DC2FCC27B9
:10278000CC27DF71D062ADCFC1158AE5D80708F438
:102790005FC0CE0190568115904208F09CCF8D2FDE
:1027A0008F710E94CD1490E0982F882788279F7101
:1027B0009C012C2BE901E6CFCE01805C91090E949F
:1027C0003B13EC018ECFEC01D06C8BCFDF70D06A65
:1027D00088CFE4E096958795EA95E1F783702C2FF2
:1027E00026952695237040E2249F90011124382BD2
:1027F0008C2F8370C1E0D0E002C0CC0FDD1F8A9522
:10280000E2F7C22BD32BDC686CCFDC2FCC27C16F57
:10281000D06A67CFCE018370992721E030E002C0F3
:10282000220F331F8A95E2F7C695C69590E2C99F9D
:10283000E0011124C22BD32BDA6853CFD82FCC2739
:10284000C46FD06A4ECFD82FCC27C06FD06A49CF83
:102850008C2F8F700E94CD1434E0D695C7953A9591
:10286000E1F7CF709C2FEC01D0693BCF8238910506
:10287000B1F1B0F48133910509F475C048F489329F
:10288000910509F469C08A32910509F473C008956D
:102890008533910509F459C08933910501F10895F3
:1028A000833E9105A9F138F4803E9105F9F0823E0E
:1028B000910549F10895863E9105A9F1873E91055C
:1028C000C9F1843E910519F52091330721FF1FC0FE
:1028D0008091320784FD14C087EE90E00895209126
:1028E00032072370A1F080EE90E008952091320726
:1028F00020FD47C03091330730FF09C024FF44C09A
:1029000090E080E004C02091320722FDF7CF0895C7
:102910002091320722FD3BC03091330730FDE3CFD9
:1029200024FFF5CFEDCF2091320723FFF0CF24FD18
:10293000E7CFD2CF2091320723FD2CC0309133074F
:1029400031FFEECF84EE90E008952091320725FF0D
:10295000DECF89E290E008952091320725FFD7CF9E
:1029600085E390E008952091320726FFD0CF8AE2D8
:1029700090E008952091320726FFC9CF81E390E0CF
:10298000089589E390E0089583EE90E0089582EE43
:1029900090E0089586EE90E008959091320792FFBE
:1029A00006C0282F28712830F9F4877F846093FFB0
:1029B00006C0282F28712831F1F4877E8461209188
:1029C000330720FF06C0382F38713830D9F4877F9D
:1029D000816021FF06C0282F28712831D1F4877E1D
:1029E000816194FD877E0895282F24712430F9F6A3
:1029F0008B7F8860DCCF282F2471243101F78B7EF8
:102A00008861DDCF382F3171313019F78E7F8860C2
:102A1000E0CF282F2171213121F78E7E8861E1CF0F
:102A2000AF92BF92CF92DF92FF920F931F93CF93FB
:102A3000DF93362F472FE82FF0E0E551F54F711166
:102A40000DC06491762F862FDF91CF911F910F914A
:102A5000FF90DF90CF90BF90AF900895C72FD0E048
:102A60002491F22E022F10E056E0659FC001112440
:102A7000EFEFF0E0BF010E94AD2F832F90E0880FB1
:102A8000991F35E5369FD001379FB00D11248A1B61
:102A90009B0B982F990F980F6F01CC1ADD0AC09EDF
:102AA000D001C19EB00DD09EB00D11248B2F949FEC
:102AB000A0011124452F55276F01C41AD50AC09EC5
:102AC000A001C19E500DD09E500D11245F01A91A86
:102AD000B108AC9E6001AD9ED00CBC9ED00C112400
:102AE000CD2CDD24EC19FD09E09FE001E19FD00D24
:102AF000F09FD00D1124ED2F62307105A1F048F444
:102B00006115710569F06130710589F0EB2F852F32
:102B100007C06430710571F088F066307105B1F757
:102B20006E2F722F91CFE22F2B2F8D2FF9CFE22F07
:102B3000252FF6CFEB2F822F2D2FF2CF2B2F8F2D7E
:102B4000E52FEECF0895CF93DF93762FE901682F1D
:102B5000842F0E941015798368838A83DF91CF9137
:102B60000895443208F043E20C94A3158091C906FD
:102B7000982F9E7F61F4817082608093C906809156
:102B8000CC06843218F083E28093CC060895863414
:102B9000B0F381708464F1CF88E090E00C941F3032
:102BA000CF92DF92EF92FF926B017C010E94B615EB
:102BB000B701A60188E090E0FF90EF90DF90CF9002
:102BC0000C943D30E9ECF6E083E0808311828FEFD6
:102BD000828383E283831482608171818281938105
:102BE0000C94D0158091C90680FF02C08695089587
:102BF00080E008958091CD06833018F48F5F809334
:102C0000CD066091C9067091CA068091CB0690915D
:102C1000CC060C94D0158091CD06882319F08150F4
:102C20008093CD066091C9067091CA068091CB064B
:102C30009091CC060C94D01570E00C94C71A60915A
:102C4000A6018091C90680FF0AC08091A50123E0FA
:102C5000829FC00111248253994F0C941C168091BD
:102C6000A7019091A80123E0829FF0011124E25373
:102C7000F94F891750F71182108212828F5F3396B5
:102C8000F8CF9091C90690FF14C09091A7012091B0
:102C9000A80133E0939FF0011124E253F94F9217FA
:102CA00010F00C941F168183608342839F5F3396DC
:102CB000F6CF0895CF93DF9300D00F92CDB7DEB754
:102CC0009091C90690FF0AC09E012F5F3F4F0E945E
:102CD000B1154B8169818A810E9441160F900F9036
:102CE0000F90DF91CF910895CF93DF93EC01EC81AA
:102CF000F0E0EA51F64F4491E9ECF6E0628181811F
:102D00000E945A168C818F5F8C83DF91CF9108953A
:102D1000CF93DF93EC01E9ECF6E0438162818C8193
:102D20000E945A168C818F5F8C83DF91CF9108951A
:102D3000AF92BF92CF92DF92EF92FF920F931F93C9
:102D4000CF93DF9300D00F92CDB7DEB7182FF62EBA
:102D5000042FE22E9091C90690FF29C0E92FE69535
:102D6000AE2FB0E0A951BE4F8C9180934C029E7F54
:102D7000923059F59E012F5F3F4F812F0E94B11570
:102D80004B8169818A810E9441161093CA06F09294
:102D9000CB060093CC06EE2051F06091C9067091ED
:102DA000CA068091CB069091CC060E94D0150F9058
:102DB0000F900F90DF91CF911F910F91FF90EF90A7
:102DC000DF90CF90BF90AF900895823019F40091BA
:102DD000CC06DBCF863019F41091CA06D6CF8930E5
:102DE000D9F3893191F6E9518E2F8170D82EE6956D
:102DF000F0E0EA51F54FA590B490C12CBB2460914E
:102E0000A901C61618F00E941F16BFCF2C2D30E066
:102E1000A29EC001A39E900DB29E900D112470E061
:102E20000E94AD2F812FD11013C0860F4091A701B2
:102E3000420F532F511D9A01220F331F240F351FAC
:102E40002253394F402F6F2D0E94B115C394D7CF15
:102E5000861BECCFE9ECF6E09181282F438162815B
:102E60008AE0890F0C94981681E00C942A17E9ECFB
:102E7000F6E09181282F4381628186EF890F0C94BF
:102E8000981681E00C943717E9ECF6E0628121E1B5
:102E9000620F08F46FEF282F438181810C949816FC
:102EA00081E00C944417E9ECF6E0628121E1621BB9
:102EB00008F460E0282F438181810C94981681E00A
:102EC0000C945317E9ECF6E0438124E0420F08F438
:102ED0004FEF282F628181810C94981681E00C9429
:102EE0006217E9ECF6E0438124E0421B08F440E07D
:102EF000282F628181810C94981681E00C947117BF
:102F000020E00C949816EF92FF921F93CF93DF93DB
:102F1000EC0110E0EE24EA94F12C6091A90116175F
:102F200070F00E941F169A818C8190FF27C08F5FDE
:102F30008C83DF91CF911F91FF90EF9008952091A6
:102F4000A701422F410F5527551FCA019A01220F91
:102F5000331F280F391F2253394F70E0C7010E94D9
:102F6000C12F962F8C814091CC066091CB06199F82
:102F7000800D11240E94B1151F5FCFCF8150D8CF93
:102F8000BF92CF92DF92EF92FF920F931F93CF9356
:102F9000DF93FC0182810FEF80FF01E010E0809160
:102FA000A9011817C0F00E941F1680914402013039
:102FB00009F051C0811102C08091A9018150809314
:102FC0004402DF91CF911F910F91FF90EF90DF901E
:102FD000CF90BF900895C091A701C12ED12CCC0DE8
:102FE000DD2DD11DCE01880F991FC80FD91FC253E7
:102FF000D94F198218821A8234E0E32EF12CB12CB9
:10300000809144028B0D813204F18F71082E000CE7
:10301000990BC816D90691F48091CC068E9DA0011B
:103020008F9D500D112455954795559547959E01B7
:103030006091CB068091CA060E94B115B00EF1E0F6
:10304000EF1AF108E9F61F5FAACF87FFDFCF909153
:10305000A901890FDBCF90E001966091A90170E092
:103060000E94C12FACCF0F931F93CF93DF9380911A
:10307000A7019091A80123E0829FF0011124E2535F
:10308000F94F891740F1C0E0D3E06091A901C6175C
:1030900040F10E941F162091A30180914302820FEC
:1030A000809343029091A401920F9093A40119166A
:1030B00054F4082E000C990B4091A9014150550B76
:1030C000841795071CF021952093A301DF91CF91E0
:1030D0001F910F9108951182108212828F5F339693
:1030E000D0CF0C2F10E070E0C8010E94C12F2091BA
:1030F000A701820F482F50E020914302022E000CBE
:10310000330B02171307BCF02091A401022E000C10
:10311000330B201731077CF08D9F9001112422532F
:10312000394F4091CC066091CB068091CA060E942F
:10313000B115CF5FAACFFA01EE0FFF1FE40FF51F05
:10314000E253F94F118210821282F3CF0F931F9333
:10315000CF93DF938C01FC0184819581019681706E
:10316000992795838483C0E0D5E58091A901C8178C
:1031700030F0DF91CF911F910F910C941F16209189
:10318000A701422F4C0F5527551FCA019A01220F44
:10319000331F280F391F2253394F8C2F8695F80182
:1031A00044815581840F952F911D81704091CC06EB
:1031B0006091CB068D9F802D11240E94B115CF5FA9
:1031C000D4CFE9ECF6E080818E7F808360817181CD
:1031D000828193810E94D01510924D022FEF80E7DB
:1031E00092E0215080409040E1F700C000000C9434
:1031F0001F166091C906669570E04BE050E08AEAC0
:1032000091E00E94DB2F892B19F481E080934D021D
:103210000E94F82890934602809345020895909169
:10322000C90690FF35C09170811128C092609093BB
:10323000C906662351F06091C9067091CA06809153
:10324000CB069091CC060E94D0156091C906669578
:1032500070E04BE050E08AEA91E00E94DB2F892B7E
:10326000A1F010924D0281E0809348024091CC067B
:103270006091CB068091CA060C948017833210F0BF
:103280009464D5CF880F982BD2CF0E94F918EBCF3A
:103290000895682F9091C906969581E0890F833231
:1032A00008F081E00C940F1981E00C944919682F03
:1032B0009091C90696958FEF890F09F482E20C94DC
:1032C0000F1981E00C94571961E00C940F19E9EC87
:1032D000F6E080818160808386950C9464198091EA
:1032E000C90680FD0C94E1180C94671960E00C94F9
:1032F0000F1980914B0281112EC00E947D278111F0
:1033000004C00E941A280E94E2150E94CC15609306
:10331000C9067093CA068093CB069093CC066E7F45
:1033200061F40E94E2150E94CC156093C906709367
:10333000CA068093CB069093CC060E94B6151092D5
:103340004D028091C90680FF03C086950E947619C0
:1033500081E080934B020895E9ECF6E08081816082
:10336000808386950C9476190F931F93CF93DF93E8
:1033700080914D02882309F47DC080914C02E09138
:10338000C906E695E81BE09347028230C9F5F0E0F4
:10339000EE51F64FE491CE2FD0E004E716E1809194
:1033A0004802882389F0109248020E94F8289E0162
:1033B00020953095820F931F90934602809345028B
:1033C00010924A0210924902809145029091460261
:1033D0000E9404298C179D0708F44CC0E091450217
:1033E000F0914602CE0FDF1FD0934602C0934502F4
:1033F00085E492E0F801DF91CF911F910F9109943C
:10340000863049F4F0E0E152F64FE491CE2FD0E05F
:1034100008E816E1C4CF893051F4E695F0E0E452B3
:10342000F64FE491CE2FD0E003E817E1B8CF8F300C
:1034300051F4E695F0E0E752F64FE491CE2FD0E05C
:1034400000EC17E1ACCF853149F4F0E0EA52F64FD9
:10345000E491CE2FD0E003E318E1A1CFC8EED3E092
:1034600006EA18E1883109F49ACFC0EDD7E002EA04
:1034700015E195CFDF91CF911F910F910895FA013A
:10348000811101C0FB010994CF93DF93C82FD62F80
:103490000E94F2158C1740F00E94F2158D1720F44F
:1034A000DF91CF910C9454198C2FDF91CF910C9414
:1034B00064190F931F93CF938C01FB01C281CC231E
:1034C00009F463C00E9498268272F801E25CFC4510
:1034D000E431F10538F4EF59FF4C0C94D52F0E94DC
:1034E0006F19C0E08C2FCF911F910F91089541E685
:1034F00059E164E579E10E943F1AF3CF44E559E1CF
:1035000061E679E1F8CF41E457E164E377E1F3CF95
:1035100044E357E161E477E1EECF4FE557E160E541
:1035200077E1E9CF40E557E16FE577E1E4CF4DE79B
:1035300057E16EE677E1DFCF4EE657E16DE777E1E1
:10354000DACF4BE056E16AEF75E1D5CF4AEF55E1AE
:103550006BE076E1D0CF81E00E946419C2CF65E0D4
:1035600082E00E94441ABDCF68E086E0FACF6EE0A8
:1035700089E0F7CF64E18FE0F4CF67E185E1F1CF37
:1035800088E1EACF62E289E1ECCFC1E0ABCF539AA8
:103590004BB1477F5BB15860EFB7F8949B01220FA6
:1035A000331F260F371F280F391F2817390741F4FB
:1035B000EFBF8FE594E00197F1F700C00000089598
:1035C000DC016D91CD0178E05BB9000000C067FFC0
:1035D0004BB9660F000000C000C000C04BB900C06E
:1035E0007A9591F7E2CF0F931F93CF93DF93C62F76
:1035F000D42F022FFC0182818823C9F060935002EE
:103600000E94F82890934F0280934E0280E28C0F24
:10361000883008F050C0C77081E001C0880FCA959B
:10362000EAF7DF91CF911F910F910C948E1E1091AC
:103630005002161335C080914E0290914F020E94A5
:103640000429883C910560F5C0E2CD0F1D17B9F043
:1036500080E2810F883040F4177081E001C0880F4C
:103660001A95EAF70E94951EC83048F481E09D2F14
:10367000977001C0880F9A95EAF70E948E1E802FDE
:103680000E947B1EC830B8F4D77081E001C0880F5B
:10369000DA95EAF7DF91CF911F910F910C94951E67
:1036A00080E28C0F883038F4C77081E001C0880F49
:1036B000CA95EAF7EFCFDF91CF911F910F9108954F
:1036C0009C01CB01233F4CE5340731F190F4283DB8
:1036D000FCE53F07E9F0293D4CE5340769F1273D5A
:1036E0003C4579F426E241EE61EE0E94F31A80E057
:1036F0000895253FFCE53F07B9F090F0263F3C4593
:10370000B9F0FC0182818823D1F010925002089513
:1037100027E245EE65EEE9CF26E241EE60EEE5CF29
:1037200027E245EE64EEE1CF26E241EE62EEDDCF28
:1037300027E245EE66EED9CF28E241E0EBCF81E00B
:103740000895CF93DF93EC01FB018281882309F474
:1037500019C1C230FCE5DF07C0F1C6319CE5D907CD
:1037600030F09E012A5F3C452930310570F50E94FA
:1037700090279093330780933207C031ECE5DE0742
:1037800009F4CFC008F05BC0C8308CE5D80709F455
:10379000B6C088F5C430ECE5DE0709F4A8C0C0F473
:1037A000C2308CE5D80709F49CC080913207826052
:1037B000C330DC4509F498C08091320790913307FB
:1037C0000E949E270E94032180E0DF91CF910895FF
:1037D000809132078061C630ECE5DE0709F484C0D1
:1037E000809132078860C730DC4508F47DC0809145
:1037F0003207806279C0CC308CE5D80709F489C0E3
:1038000070F4809132078C60CA30ECE5DE0709F471
:103810006BC008F478C0809132078E7F65C0CE30CF
:103820008CE5D80709F479C0809132078B7FCF30BF
:10383000DC4508F459C0809132078F7E55C0CB3FDC
:10384000ECE5DE0709F457C030F5C3318CE5D80745
:1038500009F46FC078F4C131ECE5DE0709F465C006
:10386000C231DC4509F0A8CF0E94032180913207C4
:103870008F773AC0C5318CE5D80709F462C008F4E7
:1038800076C0809133078160CA3FDC4509F094CF50
:103890008093330791CFCF3FFCE5DF0709F44DC09C
:1038A00088F4809133078D7FCD3F9CE5D90781F364
:1038B000809133078E7FCE3FDC4550F380913307F4
:1038C0008360E6CFC130FDE5DF0709F459C008F495
:1038D00044C080E0C230DD4509F06ECF0E941C2854
:1038E0006BCF8091320781608093320765CF8091E2
:1038F00032078460F9CF809133078260C9CF80910D
:1039000032078064F1CF0E940321809132078068E2
:10391000EBCF809132078D7FE7CF80913207877F91
:10392000E3CF809132078F7DDFCF809132078F7B8D
:10393000DBCF80913207837FD7CF809133078C7F95
:10394000A7CF8091320782FB992790F921E0922737
:1039500090FB82F990FB83F9C7CF80913307982FB2
:10396000909591708E7F892B90FB81F991CF0E9469
:10397000032190913207892F97FB87F98058B4CFA4
:1039800081E0ACCF81E021CFCF93DF93EB01863193
:103990009C4511F50E9498269A81992399F08A7A7C
:1039A00091E009F490E090935102811109C089E2FD
:1039B0000E944B260E94092780E0DF91CF91089555
:1039C00085E3F6CF80915102811104C089E20E9403
:1039D0005226F0CF85E3FBCF81E0EFCF90935702E3
:1039E000809356020895E0915602F0915702309765
:1039F00021F00190F081E02D099480E00895E0919C
:103A00005602F0915702309721F00280F381E02DA9
:103A100009940895209154023091550228173907CE
:103A200071F09093550280935402E0915602F09108
:103A30005702309721F00680F781E02D0994089510
:103A400020915202309153022817390771F0909358
:103A5000530280935202E0915602F0915702309740
:103A600021F00084F185E02D0994089585B78068E0
:103A700085BF85B7806885BF0895089508950C9423
:103A80003D1D08950E94361D0E943E1D0C943F1D51
:103A900081E008950C94481D0E94EF280E947B0845
:103AA0000E9448290E9479190C94280DBF92CF9248
:103AB000DF92EF92FF920F931F93CF93DF93CDB7D7
:103AC000DEB72A970FB6F894DEBF0FBECDBF0E94B7
:103AD00082090E944A1D882309F45EC089E5C82E28
:103AE00082E0D82E10E000E0B02E802F0E94DD0989
:103AF000E82EF601F1906F01F81609F447C08091A5
:103B0000E30281FD0E94E3099F2D9E2580E0FF24B2
:103B1000F394292F2F21B1F18E83BF82EF2081E012
:103B200009F480E088870E94F8288160782F9A87BE
:103B300089874E815F8168858A850E94ED1DF80125
:103B4000E75AFD4F8081F826F0820E94B4190E9446
:103B5000F31C90915802891781F10E94F31C809305
:103B600058022A960FB6F894DEBF0FBECDBFDF9184
:103B7000CF911F910F91FF90EF90DF90CF90BF906A
:103B80000C94C9128F5FFF0C873019F60F5F1F4F1F
:103B90000A30110509F0A8CF8FEF89838A831B8231
:103BA0000E94F8288160782F9D838C8349815A81F7
:103BB0006B818D810E94ED1DC8CF2A960FB6F894B7
:103BC000DEBF0FBECDBFDF91CF911F910F91FF9050
:103BD000EF90DF90CF90BF900895CF93DF93CDB754
:103BE000DEB72B970FB6F894DEBF0FBECDBF4F8365
:103BF000588769877A878B871E821D8285E0FE0140
:103C00003796DE01119601900D928A95E1F70E9498
:103C10007B26882319F082E00E9465270E94622695
:103C200081110E94FB2649815A816B817C818D81A3
:103C30009E812B960FB6F894DEBF0FBECDBFDF91ED
:103C4000CF910C946723FC01808191810C941D26F7
:103C5000CF93C82F882329F18CEF8C0F813AA0F4E1
:103C60006C2F8091B5019091B6010E943328882372
:103C700029F08C2F0E9452260E9409278C2F0E9427
:103C80004B26CF910C94092780E28C0F883048F4A2
:103C9000C77081E001C0880FCA95EAF70E949B2691
:103CA000F0CFCF910895882329F19CEF980F913A96
:103CB00020F40E9452260C94092790E2980F983025
:103CC00050F4877091E001C0990F8A95EAF7892F27
:103CD0000E94A126F0CF9BE5980F933020F490E04E
:103CE00080E00C940A1D885A873120F490E080E02F
:103CF0000C94201D0895CF93C82F0E94281EC9330D
:103D000049F42FEF87EE93E0215080409040E1F797
:103D100000C000008C2FCF910C94531E882321F0FB
:103D20000E949B260C9409270895882321F00E9465
:103D3000A1260C9409270895BF92CF92DF92EF92AB
:103D4000FF920F931F93CF93DF936C01D62FC72F52
:103D5000FC01158112951F70F280F1100E94B826A7
:103D60000E949126E82E882391F0FF20D1F08C2F1D
:103D7000807F803421F080E28D0F883090F082E0E7
:103D80000E9465270E94912691E0E82EE926BC2E2C
:103D9000B2948FE0B822EB2DF0E0EB58FF4C0C947E
:103DA000D52FE12CF4CF1C2F1F70C07F11F012957E
:103DB000107FFF20A9F0112359F080E28D0F883089
:103DC00010F0D11109C0812F0E949B260E94092763
:103DD0008D2F0E94281E14C0812F0E94AB26F6CF83
:103DE0008D2F0E94531E112359F080E28D0F8830D1
:103DF00010F0D1112CC0812F0E94A1260E9409270A
:103E00002B2D2850330B2430310520F40E94F31C55
:103E10000E94C912EE2009F4A3C10E94772680FDFA
:103E20009FC1F60112820E9471260E94EB24C601F6
:103E30000E94D1200E947126DF91CF911F910F9196
:103E4000FF90EF90DF90CF90BF900C940C25812FC6
:103E50000E94B126D3CF0C2F0F70C07FC03211F05B
:103E60000295007FDD2371F0D130E9F1FF2009F4E4
:103E700044C0112301F1F601858180FFA9CF8F7025
:103E8000858319C0FF20C9F0111106C00E94CB26FE
:103E9000802B0E948E1EB4CF113031F40E94CB26AD
:103EA000802B0E94E726ACCF153081F70E94FB26BD
:103EB000802F0E94D126802FECCF111106C00E94C6
:103EC000FB26802F0E94951E9BCF113041F40E944B
:103ED0009826802309F494CF0E94DA26F0CF15307B
:103EE00009F48ECFECCFFF2021F0163008F088CFF8
:103EF000E2CF153008F084CFE4CF112311F3D9338A
:103F000049F4FFEF27EE33E0F15020403040E1F775
:103F100000C000008D2F0E94531E72CF8C2F837023
:103F200009F041C0F1106CCF4D2F42954695477076
:103F3000440F440F0D2F0F7010E030E020E0042EEE
:103F400004C0000F111F221F331F0A94D2F760E034
:103F500070E0CB01D4FF0FC06FE070E080E090E034
:103F600004C0660F771F881F991F4A95D2F7609586
:103F7000709580959095C695C695C370602B712BF2
:103F8000822B932BC23049F058F4C13019F00E94B3
:103F90009D2436CF0E948B2433CF0E94AF2430CF94
:103FA0000E9489242DCF8695FF2011F08C2F8170DF
:103FB000882309F425CF4D2F429546954770440F2D
:103FC000440F0D2F0F7010E030E020E0042E04C0ED
:103FD000000F111F221F331F0A94D2F760E070E018
:103FE000CB01D4FF0FC06FE070E080E090E004C030
:103FF000660F771F881F991F4A95D2F760957095B5
:1040000080959095C695C695C370602B712B822BB9
:10401000932BC23049F058F4C13019F00E94622548
:10402000EFCE0E945025ECCE0E947425E9CE0E946E
:10403000C524E6CECF70FF2029F08C2F0E94EB2400
:104040008D2F27CF8D2F0E94951E8C2F0E940C251F
:10405000D7CED23FC9F160F4D03F09F1D13F69F129
:10406000FF2009F45DC01111B3CE8C2F8F7129C0D0
:10407000D33F79F1D43FA1F7FF2009F43FC00E945C
:104080005F260E94A1260E947726843061F50E9457
:104090005C278C2F8F710E940C25E12CB1CEFF2064
:1040A00041F0153008F0ACCE8C2F8F710E942F2577
:1040B000A7CE163008F0A4CEF7CF8C2F8F71FF203B
:1040C00029F20E94EB249CCE8C2F8F71FF20C9F324
:1040D000BDCFFF2029F08C2F8F710E94D62490CE67
:1040E0000E94D1248DCE1530C0F6CF718C2F0E9446
:1040F000EB2463E08C2F0E944627CFCF0E945F26DF
:104100000E949B26153040F00E945C270E94DA2610
:1041100064E08C2F8F71EFCF81E00E946527BDCFC7
:10412000112359F0D93309F0F5CE8FEF97EEE3E084
:1041300081509040E040E1F7EBCE8C2F8F7186CF1D
:104140004C2F4F706D2FC6010E9423130E94012433
:1041500057CE4C2F4F706D2FC6010E94261350CEA4
:10416000DF91CF911F910F91FF90EF90DF90CF9053
:10417000BF9008950F931F93CF93DF93EC01688155
:1041800079818A810E9427268C010E9486250E94BF
:104190008824B801CE01DF91CF911F910F910C942B
:1041A0009C1ECF93DF93EC018B819C81892B29F09E
:1041B0008881998189238F3F59F4DF91CF910895A8
:1041C000CE010E94BA20CE01DF91CF910C94F7115D
:1041D000CE010E94E1128111F3CF0E949126882323
:1041E00061F38A81882349F382E0DF91CF910C94B7
:1041F00065270E94B8260E94C8260C9409270E94B1
:1042000059260C94F9200E94A8260C94FF20E92F2F
:10421000E295EF70E250EE3070F4F0E0EB57FF4CB7
:104220000C94D52F803F19F020F4883E20F481E0D3
:104230000895843FE1F380E00895883EC0F3813F14
:10424000D1F7F5CF93FB882780F908950E941D26AA
:104250000C940721CF93DF9300D000D00F92CDB7FD
:10426000DEB70F900F900F900F900F90DF91CF91CE
:104270000895CF93DF9300D000D000D0CDB7DEB744
:1042800026960FB6F894DEBF0FBECDBFDF91CF915B
:1042900008951F93CF93DF93C091640216E080913D
:1042A00065028C1304C0DF91CF911F910895D0E077
:1042B0001C9FF0011D9FF00D1124EA59FD4F408114
:1042C000518162817381848195810E943921219677
:1042D000C770E5CF40919602509197026091980285
:1042E0007091990280919A0290919B020C943921CD
:1042F0001F93CF93DF9380919B02807FA9F48091DD
:104300009802882389F080916402C09165026091CF
:10431000960270919702A0919902B0919A02D62FBD
:10432000D72316E0C81304C0DF91CF911F910895E1
:1043300090E0109711F0DF3F19F401968770F2CFEB
:10434000189F9001199F300D1124F901EA59FD4F72
:1043500041814713F2CF40814613EFCF4281411193
:10436000ECCF438154814A1B5B0B483C510528F735
:1043700080919B028F70806180939B02F901E559C7
:10438000FD4F80818F708061808386E992E00E947A
:10439000D120DF91CF911F910C944921AF92BF9210
:1043A000CF92DF92EF92FF920F931F93CF93DF9301
:1043B000CDB7DEB761970FB6F894DEBF0FBECDBFA5
:1043C0008C0185E0F801DE011D9601900D928A9521
:1043D000E1F7F80140815181E28086E9C82E82E050
:1043E000D82E6091990270919A026115710509F4B5
:1043F0004FC19091960220919702892F82238F3F7F
:1044000009F446C1A380B480F0909802F501E61B40
:10441000F70BFF2009F40AC180919B02382F307FEF
:10442000E83CF10508F0C0C0311179C0FE2C25131D
:1044300023C0941321C0E1101FC08F70806180934E
:104440009B020E946A21C6010E94D12080919B029A
:10445000F80185838F2D61960FB6F894DEBF0FBEED
:10446000CDBFDF91CF911F910F91FF90EF90DF9023
:10447000CF90BF90AF900895AB2829F0842F85236B
:104480008F3F09F021C180E0F82FF170DF2E80FF0F
:104490003CC0809164022091650236E0821315C011
:1044A0004D875E878D859E850E941D26292F22952A
:1044B0002F702230F0F0243018F59F70F1F0F801E1
:1044C0009581907FD1F4D12C1EC090E0389FF001EF
:1044D000399FF00D1124EA59FD4F6181651306C023
:1044E0006081641303C062816E110FC001968770F2
:1044F000D5CF9F7011F0882331F3805E883018F398
:10450000C8010E94D120FD2CA5CFEE2009F4A2CF36
:1045100080919B02816080939B02F12C9BCF25139D
:1045200014C0941312C0E11010C0F8018583C801B3
:104530000E94D12086E0F801A6E9B2E001900D9238
:104540008A95E1F70E946A2185CF4D875E878D8528
:104550009E850E942621882319F1EE2009F1809181
:104560009B02803270F0209196023091970238873A
:104570002F831986BB86AA868C87CE0107960E9458
:10458000D12086E0F801A6E9B2E001900D928A956B
:10459000E1F70E9478210E946A21FF24F3945ACF08
:1045A000C8010E94D120F9CF311113C07A2DB98AE8
:1045B000A88A6E2D89890E942A2186E992E00E94AC
:1045C000D12086E0F60111928A95E9F70E946A21CE
:1045D000A4CF25130FC094130DC0E1100BC0F80138
:1045E0008583C8010E94D12086E0F60111928A9548
:1045F000E9F730CF4D875E878D859E850E94262105
:10460000882371F2EE2061F280919B02803208F4DF
:10461000B8CF20919602309197023A8329831B826A
:10462000BD82AC828E83CE010196A9CFE83CF10514
:1046300010F5FE2CEE2009F4B3CF25130BC0941314
:1046400009C086E0F801A6E9B2E001900D928A95D2
:10465000E1F700CF4D875E878D859E850E942621DC
:1046600081118FCF80919B02816080939B02C80152
:104670000E94D120EFCE7A2DB98AA88A6E2D898921
:104680000E942A2186E0F60111928A95E9F75ACF15
:10469000EE2009F485CF4D875E878D859E850E942B
:1046A0002621F82E882309F47BCF86E0F801A6E9BD
:1046B000B2E001900D928A95E1F786E992E00E94BE
:1046C000231E0E9478213ECF81E08E25DDCE1F93F0
:1046D000CF93DF93CDB7DEB72C970FB6F894DEBF3C
:1046E0000FBECDBF4F83588769877A878B879C879A
:1046F000CE0107960E94CE21882369F08A859B858A
:10470000892B39F04F815885842F85238F3F09F0FD
:1047100071C016E05FC086E0FE013796DE0111969B
:1047200001900D928A95E1F78A859B85892B89F303
:104730008F81988589238F3F61F32091650230E056
:10474000C90101968770992740916402481719069C
:1047500071F40E940321109265021092640286E0B7
:10476000E6E9F2E0DF011D928A95E9F7D2CF96E003
:10477000929FD001939FB00D1124AA59BD4FFE0105
:10478000319601900D929A95E1F7809365020E940F
:104790004921BFCF819FC00111248A599D4F0E949A
:1047A000CE218823E9F0E09164021E9FF0011124DC
:1047B000EA59FD4F408151816281738184819581E5
:1047C0000E9439218091640290E0019687709927B8
:1047D0008093640280916402909165028913DACF1C
:1047E0002C960FB6F894DEBF0FBECDBFDF91CF91F0
:1047F0001F91089569857A858B859C850E94392152
:1048000088CFEF92FF920F931F93CF93DF938C018A
:10481000892B81F0F12CEE24E394E8012196F80134
:104820008491843770F4843008F05FC08130B1F037
:104830008230A1F1DF91CF911F910F91FF90EF9006
:104840000895853709F44CC008F43DC09CE7980FE3
:10485000903780F78F770E94531E49C00E5F1F4F1D
:10486000FE01849190E2980F983060F48770FE2DDD
:1048700001C0FF0F8A95EAF78F2F0E94BB260E9486
:10488000092702C00E94281E8F2D815030F2EFE9C7
:10489000FFE03197F1F700C00000F7CF0E5F1F4F28
:1048A000FE01849190E2980F983050F48770FE2DAD
:1048B00001C0FF0F8A95EAF78F2F0E94C126DFCF34
:1048C0000E94531EE1CF0E5F1F4FFE01C491C150E5
:1048D000D8F28FE99FE00197F1F700C00000F7CF11
:1048E0000E5F1F4FFE01F490CFCF0E94281E8E0155
:1048F000CBCF08950C9479240E947A246093CD0242
:104900007093CE028093CF029093D0020C94F92042
:1049100008950C947C240F931F930091CD02109165
:10492000CE022091CF023091D002602B712B822BCE
:10493000932B1F910F910C947C240F931F93009144
:10494000CD021091CE022091CF023091D00260238F
:104950007123822393231F910F910C947C240F9336
:104960001F930091CD021091CE022091CF02309181
:10497000D00260277127822793271F910F910C94F3
:104980007C240C9479240C94C1240E94C324609349
:10499000C9027093CA028093CB029093CC020C940C
:1049A000F92060E070E0CB010C94C5240F931F93B5
:1049B00041E050E060E070E08A019B0104C0000F1C
:1049C000111F221F331F8A95D2F7C901B8011F9109
:1049D0000F910C94C5240F931F9341E050E060E0C9
:1049E00070E004C0440F551F661F771F8A95D2F7E9
:1049F0008091C9029091CA02A091CB02B091CC02E1
:104A00008A019B01082B192B2A2B3B2BC901B801CA
:104A10001F910F910C94C5240F931F9341E050E018
:104A200060E070E004C0440F551F661F771F8A9531
:104A3000D2F7CB01BA016095709580959095009161
:104A4000C9021091CA022091CB023091CC0260239E
:104A50007123822393231F910F910C94C5240F93EC
:104A60001F9341E050E060E070E004C0440F551F28
:104A7000661F771F8A95D2F78091C9029091CA026A
:104A8000A091CB02B091CC028A019B010827192783
:104A90002A273B27C901B8011F910F910C94C52407
:104AA0000F931F930091C9021091CA022091CB026B
:104AB0003091CC02602B712B822B932B1F910F9185
:104AC0000C94C5240F931F930091C9021091CA0240
:104AD0002091CB023091CC02602371238223932357
:104AE0001F910F910C94C5240F931F930091C9023D
:104AF0001091CA022091CB023091CC02602771271D
:104B0000822793271F910F910C94C524089527E0C5
:104B1000929F800D1124982F977041E001C0440F9F
:104B20009A95EAF786958695869595E0899FF00196
:104B30001124E456FD4F90E080E070E05191DF01D8
:104B400011979B01082E02C0369527950A94E2F72B
:104B5000217021952527242325272C930196853024
:104B6000910561F7089527E0929F800D1124982FF9
:104B7000977086958695869525E0829FF001112491
:104B8000E456FD4F50E040E080E0219130E0092EF6
:104B900002C0369527950A94E2F721703327042E38
:104BA00001C0220F0A94EAF7822B4F5F5F4F453016
:104BB000510559F70895BF92CF92DF92EF92FF927D
:104BC0000F931F93CF93DF938C01C090C902D090B5
:104BD000CA02E090CB02F090CC028091CD0290917D
:104BE000CE02A091CF02B091D002C82AD92AEA2AD7
:104BF000FB2ACFE1D0E0BC2ED701C6010C2E04C0A9
:104C0000B695A795979587950A94D2F780FD0EC023
:104C1000219788F7B12C8B2DDF91CF911F910F91A8
:104C2000FF90EF90DF90CF90BF900895B8018C2F48
:104C30000E944313019761F3EECFCF93DF93EC0112
:104C40000E94DB25BE01DF91CF910C9443131F938B
:104C5000CF93DF93EB0190916302992331F0CB0165
:104C6000DF91CF911F910C941D26882379F0CB0101
:104C70000E94DB25182F682FCE010E948725BE01D8
:104C8000812FDF91CF911F910C944313CB010E9490
:104C9000B325182FF4CF682F8091B5019091B601FC
:104CA0000C946928682F8091B5019091B6010C94FD
:104CB0006B288091B5019091B6010C946D2880917C
:104CC000D60208950E94F8282091D4023091D5028E
:104CD000821B930B9C0181E02838334108F480E06B
:104CE00008958091D3028595859585950895809145
:104CF000D302877008950E94F8282091D102309144
:104D0000D202821B930B8838934148F08091D302E2
:104D100082FB882780F991E089278170089580E0DF
:104D2000FCCF9091D302977081E009F480E0089560
:104D30008091E20208959091E202892B8093E20231
:104D4000089580959091E20298239093E20208954D
:104D50001092E20208959091E102892B8093E10282
:104D6000089580959091E10298239093E10208952F
:104D70001092E10208959091E002892B8093E00265
:104D8000089580959091E00298239093E002089511
:104D90001092E00208958091D702089508950C942E
:104DA000CE269091D602981721F08093D6020C94CB
:104DB000CF2608958091D602882329F01092D6023A
:104DC00080E00C94CF26089508950C94E426CF93A8
:104DD000C82F8091D7028C1761F00E94F828909319
:104DE000D5028093D402C093D7028C2FCF910C941C
:104DF000E526CF9108958091D702882349F010923B
:104E0000D7021092D5021092D40280E00C94E526CD
:104E10000895E091B501F091B6018091E20280839E
:104E2000E091B501F091B60180819091E102892B6A
:104E30008083E091B501F091B60180819091E0020C
:104E4000892B80838091D7028823B9F00E94622643
:104E500081110E94FB26E091B501F091B60180819D
:104E60009091D702892B80838091B5019091B601F2
:104E70000E94212881110E94FB268091B50190910A
:104E8000B6010C94FF1C08950C94432798E0899F69
:104E900090011124622B6093D3020E94EB240E94A4
:104EA000F8289093D2028093D1028091D302859505
:104EB000859585950C9444271092D3021092D202C6
:104EC0001092D10280E00C9444279091D3028095F7
:104ED00089238093D302282F277071F4282F082E5E
:104EE000000C330B9217130639F08595859585953F
:104EF0000E940C250C945C27089590E080E00E94AD
:104F0000253021E08C3E9E4F09F020E0822F08954D
:104F100082E090E00C94173083E090E00C9417301E
:104F2000CF9384E090E00E941730C82F81E290E098
:104F30000E941730982F8C2FCF910895CF93C92FAF
:104F4000682F84E090E00E942B306C2F81E290E08B
:104F5000CF910C942B30AB01BC018FE090E00C940E
:104F60003D30AB01BC0183E190E00C943D3060E04A
:104F700070E0CB010C94B12760E070E0CB010E949F
:104F8000AB270C94B7276CEE7EEF90E080E00E9498
:104F9000493060E082E090E00E942B3060E083E0E6
:104FA00090E00E942B301092CD021092CE0210920F
:104FB000CF021092D00260E084E090E00E942B309B
:104FC00060E081E290E00E942B3060E085E090E0BC
:104FD0000E942B3060E086E090E00E942B306FEF63
:104FE00087E090E00E942B3040E050E0BA0188E07A
:104FF00090E00E943D3060E08DE090E00E942B3018
:1050000040E050E0BA0188E190E00E943D3060E06D
:1050100087E190E00E942B3040E050E0BA018CE143
:1050200090E00E943D3060E080E290E00E942B30F2
:105030000C94BC270C94C327682F8EE090E00C944E
:105040002B309C012E5F3F4FAC01485F5F4F80E0EB
:105050002417350709F40895F90191919F019923C7
:10506000B9F38F5FF5CF662349F0FC0132960896BD
:105070002191261729F0E817F907D1F780E0089564
:1050800081E008959C01FC0132969FEF80E0419100
:10509000461751F09F3F19F4411101C0982F8F5FBF
:1050A0008630A9F79F3F09F40895290F311D97FD18
:1050B0003A95F90162830895FC0132960896219190
:1050C000261303C0DF0111971C92E817F907B9F7FF
:1050D00008950C9442280C945C28029626E0FC016A
:1050E00011922A95E9F70895089508950C9475286A
:1050F0000E94762880913807843049F11092E402AA
:1051000088E190E020E40FB6F894A89580936000C1
:105110000FBE2093600080E00E94C9120E94762892
:1051200083B7817F846083BF83B7816083BF7894B6
:10513000889583B78E7F83BF0FB6F894A89580912A
:105140006000886180936000109260000FBE089537
:105150000895CF930E9474280E9482090E94A82873
:10516000C0E08C2F0E94DD09811105C0CF5FCA30DD
:10517000C1F7CF91089581E0FCCF08950C94BD282C
:105180000E9403210E94F31C0E94C9120C94BE28A5
:105190001F921FB61F9211248F939F93AF93BF93BB
:1051A0008091E402811113C080912E0790912F0706
:1051B000A0913007B09131074196A11DB11D809398
:1051C0002E0790932F07A0933007B0933107BF911C
:1051D000AF919F918F911F901FBE1F90189582E0F5
:1051E00084BD93E095BD9AEF97BD80936E000895BE
:1051F0002FB7F89480912E0790912F07A091300738
:10520000B09131072FBF08959C014FB7F89480915A
:105210002E0790912F07A0913007B09131074FBF13
:10522000821B930B089578941F921FB61F9211242E
:105230008F939F93AF93BF9380912E0790912F07E9
:10524000A0913007B09131070196A11DB11D809347
:105250002E0790932F07A0933007B0933107BF918B
:10526000AF919F918F911F901FBE1F90189587E758
:1052700097E7909301088093000888E19AE00FB6C1
:10528000F894A895809360000FBE90936000FFCFC4
:105290000E947D27811102C00E941A280E9488273F
:1052A0008093E3020E949027909333078093320704
:1052B0000E948C27682F70E090E080E00C94892495
:1052C0008091ED02089508950895CF93DF93EC0146
:1052D0000E94FF2A823011F0843039F581E08093FA
:1052E000E9008FEF9091E800815095FD06C095EDA3
:1052F0009A95F1F700008111F5CF8091E80085FFC4
:1053000014C050E040E068E070E0CE010E941C2B29
:105310008091E8008E778093E80088E0FE01A5EE9A
:10532000B2E001900D928A95E1F7DF91CF91089557
:10533000089580913707811109C00E94AC2C0E940A
:10534000092D8091E20084608093E200089510921C
:1053500037070895089508950C94C02842E061EC41
:1053600081E00C94282C80913A07833009F45FC0C7
:1053700030F48130C1F1823009F49BC008958A3045
:1053800009F487C08B3009F46DC0893009F04EC034
:1053900080913907813209F049C080913D07909191
:1053A0003E07892B09F042C08091E800877F8093F7
:1053B000E8008091E80082FF35C09091F300809171
:1053C000F200029729F48091F1008B7F813021F463
:1053D0008091F1008093ED028091E8008B778093BB
:1053E000E8000C945C2C80913907813AF9F48091A3
:1053F000E800877F8093E80080913D0790913E0709
:10540000892B61F468E085EE92E070E00E946B2BDE
:105410008091E8008B778093E800089560E090E049
:1054200080E0F3CF809138078111C3CF0895809138
:105430003907813AD9F780913D0790913E07892B32
:10544000A9F78091E800877F8093E8008091E800C9
:1054500080FFFCCF8091C1018093F1008091E80032
:105460008E77BDCF80913907813201F780913D075A
:1054700090913E07892BD1F68091E800877F809339
:10548000E8000E945C2C80913B078093C1010C9442
:10549000032180913907813249F68091E800877FA6
:1054A0008093E8000E945C2C80913C078093EE0280
:1054B000089580913907813A09F0B8CF8091E800CA
:1054C000877F8093E8008091E80080FFFCCF809187
:1054D000EE02C2CF84B7877F84BF0FB6F894A89539
:1054E00080916000886180936000109260000FBE20
:1054F00080E890E00FB6F89480936100909361008B
:105500000FBE0E94421D0E94AC2C0E94092D80916A
:10551000E20084608093E20078940E94922F0E94BF
:105520004C1D87EB91E00E94EE1C8091380785307E
:1055300019F00E94561DF9CF0E94782880913607F5
:10554000882399F30E94A928882379F30E94062BC7
:10555000ECCF0C94AB2A292F332723303105C9F027
:1055600058F421303105C9F122303105D9F190E0EC
:1055700080E030E020E020C02132310539F12232D4
:105580003105A9F780E490E027E53CE0672B79F747
:1055900013C099278130910599F0009741F082302E
:1055A000910589F0039719F7EBEEFBE002C0EFE1FC
:1055B000FCE0849190E09F01FA01318320830895FB
:1055C000E9E0FCE0F6CFE1EFFBE0F3CF89E090E02B
:1055D00025E33CE0672B59F6EFCF82E190E025E42C
:1055E0003CE0EACF82E290E023E23CE0E5CF80912C
:1055F0003807843011F482E0089581E008958091A5
:10560000EF02811102C00C94F72A089580E189BD50
:1056100082E189BD09B400FEFDCF8091D8008F7D65
:105620008093D8008091E00082608093E0008091B8
:10563000E00081FDFCCF0895AF92BF92CF92DF9240
:10564000FF920F931F93CF93DF936C01EB018A01BD
:105650000E947B2CF82E811123C00115110539F011
:10566000F80180819181C81BD90BC80ED91EB12CBD
:10567000A12C2097A9F08091E80085FD22C080919F
:10568000E8008E778093E80001151105A1F0F8017C
:1056900080819181A80EB91EB182A08285E0F82E8A
:1056A0008F2DDF91CF911F910F91FF90DF90CF90C1
:1056B000BF90AF9008950E947B2C8823D1F2F82EE2
:1056C000EFCFF60181916F018093F1002197FFEFF9
:1056D000AF1ABF0ACECFFC0180913F0790914007DF
:1056E00086179707A0F06115710529F49091E800DD
:1056F0009E779093E80090E06115710551F4911147
:1057000008C08091E80082FF34C080E00895BC01A9
:10571000F2CF809138078823C1F18530C1F18091A3
:10572000E80083FD30C08091E80082FDEACF8091DF
:10573000E80080FFE1CF8091F3002091F200382F44
:105740006115710519F02830310558F091E02830C5
:10575000310509F090E02091E8002E772093E800D1
:10576000CBCF81918093F100615071092F5F3F4F42
:10577000E7CF80913807882341F0853041F0809150
:10578000E80083FFBECF81E0089582E0089583E0C2
:105790000895FC0180913F07909140078617970775
:1057A000A0F06115710529F48091E8008E7780934F
:1057B000E80090E06115710551F4911108C08091E5
:1057C000E80082FF35C080E00895BC01F2CF8091EF
:1057D00038078823C9F18530C9F18091E80083FD3D
:1057E00031C08091E80082FDEACF8091E80080FF1F
:1057F000E1CF8091F3002091F200382F61157105FF
:1058000019F02830310558F091E02830310509F0C1
:1058100090E08091E8008E778093E800CBCF849170
:105820008093F1003196615071092F5F3F4FE6CFB1
:1058300080913807882341F0853041F08091E8005D
:1058400083FFBDCF81E0089582E0089583E008954D
:10585000982F973028F08F708093E90081E00895A9
:105860009093E900242F762F50E0981731F0709133
:10587000EC002091ED005091F00021FD02C09F5FEF
:10588000E8CF3091EB003E7F3093EB003091ED009C
:105890003D7F3093ED003091EB0031603093EB00B1
:1058A0007093EC002093ED005093F0002091EE00F7
:1058B00027FDE5CF80E008958091390787FF13C069
:1058C0008091E80082FF06C08091E8008B7780938A
:1058D000E80004C0809138078111F2CF08958091CB
:1058E00038078823D9F38091E80080FFF8CF8091B2
:1058F000E8008E77ECCF2091E4003091E50095E64A
:10590000A9012091EC00822F817020FF06C08091B8
:10591000E80080FF06C080E008952091E80022FDA5
:105920001AC080913807882389F0853089F08091EA
:10593000EB0085FD0FC02091E4003091E500421797
:105940005307F9F29150E1F684E0089582E008955A
:1059500083E0089581E008950E941A2D0E94222D6F
:10596000E0EEF0E0808181608083E8EDF0E080810E
:105970008F77808319BCA7EDB0E08C918E7F8C93DC
:1059800080818F7E80831092370708950F931F9335
:10599000CF93DF930E941A2D0E94222DC8EDD0E0F4
:1059A00088818F77888388818068888388818F7DCC
:1059B000888319BC1092380710923407109236076A
:1059C0001092350700EE10E0F80180818B7F808314
:1059D00088818160888342E060E080E00E94282C1A
:1059E000E1EEF0E080818E7F8083E2EEF0E0808166
:1059F00081608083808188608083F80180818E7FD0
:105A00008083888180618883DF91CF911F910F917E
:105A10000895E8EDF0E080818F7E8083E7EDF0E08F
:105A200080818160808384E082BF81E0809337073A
:105A30000C94C62CE8EDF0E080818E7F808310927C
:105A4000E20008951092DA001092E10008951F928A
:105A50000F920FB60F9211242F933F934F935F93A2
:105A60006F937F938F939F93AF93BF93EF93FF9326
:105A70008091E10082FF0BC08091E20082FF07C0AD
:105A80008091E1008B7F8093E1000E94912F8091B3
:105A9000DA0080FF19C08091D80080FF15C0809186
:105AA000DA008E7F8093DA008091D90080FF96C063
:105AB00080E189BD82E189BD09B400FEFDCF81E0AE
:105AC000809338070E9499298091E10080FF19C0D6
:105AD0008091E20080FF15C08091E2008E7F80936C
